{
  "_format": "hh-sol-artifact-1",
  "contractName": "Marketplace",
  "sourceName": "contracts/Marketplace.sol",
  "abi": [
    {
      "inputs": [],
      "stateMutability": "nonpayable",
      "type": "constructor"
    },
    {
      "anonymous": false,
      "inputs": [
        {
          "indexed": false,
          "internalType": "address",
          "name": "collection",
          "type": "address"
        },
        {
          "indexed": false,
          "internalType": "uint256",
          "name": "tokenId",
          "type": "uint256"
        },
        {
          "indexed": false,
          "internalType": "uint256",
          "name": "price",
          "type": "uint256"
        },
        {
          "indexed": false,
          "internalType": "address",
          "name": "by",
          "type": "address"
        }
      ],
      "name": "BuyOrderCancelled",
      "type": "event"
    },
    {
      "anonymous": false,
      "inputs": [
        {
          "indexed": false,
          "internalType": "address",
          "name": "collection",
          "type": "address"
        },
        {
          "indexed": false,
          "internalType": "uint256",
          "name": "tokenId",
          "type": "uint256"
        },
        {
          "indexed": false,
          "internalType": "uint256",
          "name": "price",
          "type": "uint256"
        },
        {
          "indexed": false,
          "internalType": "address",
          "name": "by",
          "type": "address"
        }
      ],
      "name": "BuyOrderCreated",
      "type": "event"
    },
    {
      "anonymous": false,
      "inputs": [
        {
          "indexed": false,
          "internalType": "address",
          "name": "collection",
          "type": "address"
        },
        {
          "indexed": false,
          "internalType": "uint256",
          "name": "tokenId",
          "type": "uint256"
        },
        {
          "indexed": false,
          "internalType": "uint256",
          "name": "price",
          "type": "uint256"
        },
        {
          "indexed": false,
          "internalType": "address",
          "name": "by",
          "type": "address"
        },
        {
          "indexed": false,
          "internalType": "uint256",
          "name": "sellerReceivable",
          "type": "uint256"
        },
        {
          "indexed": false,
          "internalType": "uint256",
          "name": "marketplaceReceivable",
          "type": "uint256"
        }
      ],
      "name": "BuyOrderExecuted",
      "type": "event"
    },
    {
      "anonymous": false,
      "inputs": [
        {
          "indexed": false,
          "internalType": "string",
          "name": "name",
          "type": "string"
        },
        {
          "indexed": false,
          "internalType": "string",
          "name": "symbol",
          "type": "string"
        },
        {
          "indexed": false,
          "internalType": "address",
          "name": "by",
          "type": "address"
        }
      ],
      "name": "CollectionAdded",
      "type": "event"
    },
    {
      "anonymous": false,
      "inputs": [
        {
          "indexed": false,
          "internalType": "address",
          "name": "to",
          "type": "address"
        },
        {
          "indexed": false,
          "internalType": "uint256",
          "name": "amount",
          "type": "uint256"
        }
      ],
      "name": "FeesWithdrawn",
      "type": "event"
    },
    {
      "anonymous": false,
      "inputs": [
        {
          "indexed": false,
          "internalType": "uint256",
          "name": "percentage",
          "type": "uint256"
        }
      ],
      "name": "MarketFeeSet",
      "type": "event"
    },
    {
      "anonymous": false,
      "inputs": [
        {
          "indexed": true,
          "internalType": "address",
          "name": "previousOwner",
          "type": "address"
        },
        {
          "indexed": true,
          "internalType": "address",
          "name": "newOwner",
          "type": "address"
        }
      ],
      "name": "OwnershipTransferred",
      "type": "event"
    },
    {
      "anonymous": false,
      "inputs": [
        {
          "indexed": false,
          "internalType": "address",
          "name": "collection",
          "type": "address"
        },
        {
          "indexed": false,
          "internalType": "uint256",
          "name": "tokenId",
          "type": "uint256"
        },
        {
          "indexed": false,
          "internalType": "uint256",
          "name": "price",
          "type": "uint256"
        },
        {
          "indexed": false,
          "internalType": "address",
          "name": "by",
          "type": "address"
        }
      ],
      "name": "SellOrderCancelled",
      "type": "event"
    },
    {
      "anonymous": false,
      "inputs": [
        {
          "indexed": false,
          "internalType": "address",
          "name": "collection",
          "type": "address"
        },
        {
          "indexed": false,
          "internalType": "uint256",
          "name": "tokenId",
          "type": "uint256"
        },
        {
          "indexed": false,
          "internalType": "uint256",
          "name": "price",
          "type": "uint256"
        },
        {
          "indexed": false,
          "internalType": "address",
          "name": "by",
          "type": "address"
        }
      ],
      "name": "SellOrderCreated",
      "type": "event"
    },
    {
      "anonymous": false,
      "inputs": [
        {
          "indexed": false,
          "internalType": "address",
          "name": "collection",
          "type": "address"
        },
        {
          "indexed": false,
          "internalType": "uint256",
          "name": "tokenId",
          "type": "uint256"
        },
        {
          "indexed": false,
          "internalType": "uint256",
          "name": "price",
          "type": "uint256"
        },
        {
          "indexed": false,
          "internalType": "address",
          "name": "by",
          "type": "address"
        },
        {
          "indexed": false,
          "internalType": "uint256",
          "name": "sellerReceivable",
          "type": "uint256"
        },
        {
          "indexed": false,
          "internalType": "uint256",
          "name": "marketplaceReceivable",
          "type": "uint256"
        }
      ],
      "name": "SellOrderExecuted",
      "type": "event"
    },
    {
      "inputs": [
        {
          "internalType": "address",
          "name": "_collection",
          "type": "address"
        }
      ],
      "name": "addCollection",
      "outputs": [],
      "stateMutability": "nonpayable",
      "type": "function"
    },
    {
      "inputs": [],
      "name": "balance",
      "outputs": [
        {
          "internalType": "uint256",
          "name": "",
          "type": "uint256"
        }
      ],
      "stateMutability": "view",
      "type": "function"
    },
    {
      "inputs": [
        {
          "internalType": "uint256",
          "name": "amount",
          "type": "uint256"
        }
      ],
      "name": "calculateFeeFor",
      "outputs": [
        {
          "internalType": "uint256",
          "name": "",
          "type": "uint256"
        }
      ],
      "stateMutability": "view",
      "type": "function"
    },
    {
      "inputs": [
        {
          "internalType": "uint256",
          "name": "_orderId",
          "type": "uint256"
        }
      ],
      "name": "cancelBuyOrder",
      "outputs": [],
      "stateMutability": "nonpayable",
      "type": "function"
    },
    {
      "inputs": [
        {
          "internalType": "uint256",
          "name": "_orderId",
          "type": "uint256"
        }
      ],
      "name": "cancelSellOrder",
      "outputs": [],
      "stateMutability": "nonpayable",
      "type": "function"
    },
    {
      "inputs": [
        {
          "internalType": "uint256",
          "name": "",
          "type": "uint256"
        }
      ],
      "name": "collections",
      "outputs": [
        {
          "internalType": "contract IERC721Metadata",
          "name": "",
          "type": "address"
        }
      ],
      "stateMutability": "view",
      "type": "function"
    },
    {
      "inputs": [],
      "name": "collectionsCount",
      "outputs": [
        {
          "internalType": "uint256",
          "name": "",
          "type": "uint256"
        }
      ],
      "stateMutability": "view",
      "type": "function"
    },
    {
      "inputs": [
        {
          "internalType": "string",
          "name": "_name",
          "type": "string"
        },
        {
          "internalType": "string",
          "name": "_symbol",
          "type": "string"
        },
        {
          "internalType": "string",
          "name": "_description",
          "type": "string"
        },
        {
          "internalType": "string",
          "name": "_baseUri",
          "type": "string"
        }
      ],
      "name": "createCollection",
      "outputs": [],
      "stateMutability": "nonpayable",
      "type": "function"
    },
    {
      "inputs": [
        {
          "internalType": "uint256",
          "name": "_orderId",
          "type": "uint256"
        }
      ],
      "name": "executeBuyOrder",
      "outputs": [],
      "stateMutability": "nonpayable",
      "type": "function"
    },
    {
      "inputs": [
        {
          "internalType": "uint256",
          "name": "_orderId",
          "type": "uint256"
        },
        {
          "internalType": "address",
          "name": "_sendTo",
          "type": "address"
        }
      ],
      "name": "executeSellOrder",
      "outputs": [],
      "stateMutability": "payable",
      "type": "function"
    },
    {
      "inputs": [],
      "name": "feePercentage",
      "outputs": [
        {
          "internalType": "uint16",
          "name": "",
          "type": "uint16"
        }
      ],
      "stateMutability": "view",
      "type": "function"
    },
    {
      "inputs": [
        {
          "internalType": "uint256",
          "name": "_id",
          "type": "uint256"
        }
      ],
      "name": "getCollection",
      "outputs": [
        {
          "internalType": "contract IERC721Metadata",
          "name": "",
          "type": "address"
        }
      ],
      "stateMutability": "view",
      "type": "function"
    },
    {
      "inputs": [
        {
          "internalType": "uint256",
          "name": "_id",
          "type": "uint256"
        }
      ],
      "name": "getOrder",
      "outputs": [
        {
          "components": [
            {
              "internalType": "uint256",
              "name": "price",
              "type": "uint256"
            },
            {
              "internalType": "address",
              "name": "createdBy",
              "type": "address"
            },
            {
              "internalType": "address",
              "name": "tokenOwner",
              "type": "address"
            },
            {
              "internalType": "address",
              "name": "collection",
              "type": "address"
            },
            {
              "internalType": "uint256",
              "name": "token",
              "type": "uint256"
            },
            {
              "internalType": "enum OrderStatus",
              "name": "status",
              "type": "uint8"
            },
            {
              "internalType": "enum OrderType",
              "name": "ofType",
              "type": "uint8"
            }
          ],
          "internalType": "struct Order",
          "name": "",
          "type": "tuple"
        }
      ],
      "stateMutability": "view",
      "type": "function"
    },
    {
      "inputs": [],
      "name": "lockedBalance",
      "outputs": [
        {
          "internalType": "uint256",
          "name": "",
          "type": "uint256"
        }
      ],
      "stateMutability": "view",
      "type": "function"
    },
    {
      "inputs": [
        {
          "internalType": "address",
          "name": "_collection",
          "type": "address"
        },
        {
          "internalType": "uint256",
          "name": "_tokenId",
          "type": "uint256"
        }
      ],
      "name": "makeBuyOrder",
      "outputs": [],
      "stateMutability": "payable",
      "type": "function"
    },
    {
      "inputs": [
        {
          "internalType": "address",
          "name": "_collection",
          "type": "address"
        },
        {
          "internalType": "uint256",
          "name": "_tokenId",
          "type": "uint256"
        },
        {
          "internalType": "uint256",
          "name": "_price",
          "type": "uint256"
        }
      ],
      "name": "makeSellOrder",
      "outputs": [],
      "stateMutability": "nonpayable",
      "type": "function"
    },
    {
      "inputs": [],
      "name": "ordersCount",
      "outputs": [
        {
          "internalType": "uint256",
          "name": "",
          "type": "uint256"
        }
      ],
      "stateMutability": "view",
      "type": "function"
    },
    {
      "inputs": [],
      "name": "owner",
      "outputs": [
        {
          "internalType": "address",
          "name": "",
          "type": "address"
        }
      ],
      "stateMutability": "view",
      "type": "function"
    },
    {
      "inputs": [],
      "name": "renounceOwnership",
      "outputs": [],
      "stateMutability": "nonpayable",
      "type": "function"
    },
    {
      "inputs": [
        {
          "internalType": "uint16",
          "name": "_newFeePercentage",
          "type": "uint16"
        }
      ],
      "name": "setMarketFee",
      "outputs": [],
      "stateMutability": "nonpayable",
      "type": "function"
    },
    {
      "inputs": [
        {
          "internalType": "address",
          "name": "newOwner",
          "type": "address"
        }
      ],
      "name": "transferOwnership",
      "outputs": [],
      "stateMutability": "nonpayable",
      "type": "function"
    },
    {
      "inputs": [
        {
          "internalType": "address",
          "name": "_to",
          "type": "address"
        },
        {
          "internalType": "uint256",
          "name": "_amount",
          "type": "uint256"
        }
      ],
      "name": "withdraw",
      "outputs": [],
      "stateMutability": "nonpayable",
      "type": "function"
    }
  ],
  "bytecode": "0x60806040523480156200001157600080fd5b506200001d3362000069565b6000805461ffff60a01b1916600f60a11b1781556001556200004c6002620000b9602090811b62001fa217901c565b620000636004620000b960201b62001fa21760201c565b620000c2565b600080546001600160a01b038381166001600160a01b0319831681178455604051919092169283917f8be0079c531659141344cd1fd0a4f28419497f9722a3daafe3b4186f6b6457e09190a35050565b80546001019055565b61460c80620000d26000396000f3fe6080604052600436106200011c5760003560e01c806315cfb2cd14620001215780631a46e42a146200014857806324cc0662146200016d57806335daa731146200019857806341db187514620001b05780634fc712eb14620001c757806353b6273314620001ec5780635a1f3c2814620002115780636dc92426146200024f578063715018a6146200027457806372c466ef146200028c5780637b80889b14620002a35780638da5cb5b14620002bb578063a001ecdd14620002d3578063a174e77a146200030b578063b69ef8a81462000330578063be5d147f1462000348578063d09ef241146200036d578063f2fde38b14620003a1578063f3fef3a314620003c6578063fa15927814620003eb578063fdbda0ec1462000410575b600080fd5b3480156200012e57600080fd5b506200014662000140366004620021bf565b6200044a565b005b3480156200015557600080fd5b506200014662000167366004620021ec565b62000506565b3480156200017a57600080fd5b506200018562000692565b6040519081526020015b60405180910390f35b348015620001a557600080fd5b5062000185620006b1565b62000146620001c13660046200221c565b620006bf565b348015620001d457600080fd5b5062000185620001e6366004620021ec565b62000ad1565b348015620001f957600080fd5b50620001466200020b366004620021ec565b62000b02565b3480156200021e57600080fd5b506200023662000230366004620021ec565b62000e91565b6040516001600160a01b0390911681526020016200018f565b3480156200025c57600080fd5b50620001466200026e3660046200224b565b62000f29565b3480156200028157600080fd5b506200014662001374565b620001466200029d36600462002283565b6200138c565b348015620002b057600080fd5b506200018560015481565b348015620002c857600080fd5b5062000236620016f5565b348015620002e057600080fd5b50600054620002f790600160a01b900461ffff1681565b60405161ffff90911681526020016200018f565b3480156200031857600080fd5b50620001466200032a366004620022b6565b62001704565b3480156200033d57600080fd5b5062000185620019df565b3480156200035557600080fd5b506200014662000367366004620021ec565b620019f1565b3480156200037a57600080fd5b50620003926200038c366004620021ec565b62001c10565b6040516200018f9190620022ec565b348015620003ae57600080fd5b5062000146620003c0366004620022b6565b62001d9e565b348015620003d357600080fd5b5062000146620003e53660046200221c565b62001e1d565b348015620003f857600080fd5b50620001466200040a366004620023bd565b62001f41565b3480156200041d57600080fd5b50620002366200042f366004620021ec565b6003602052600090815260409020546001600160a01b031681565b6200045462001fab565b6103e88161ffff161115620004b05760405162461bcd60e51b815260206004820152601e60248201527f466565206d757374206265206265747765656e203020616e642031303030000060448201526064015b60405180910390fd5b6000805461ffff60a01b1916600160a01b61ffff8416908102919091179091556040519081527fe9ea10648d057acfd1b084dec33213b86c8803e7676e7c28cb81d88e260b7bc19060200160405180910390a150565b600081815260056020908152604080832060038101546001600160a01b031684526006835281842060048201548552909252909120546200055b5760405162461bcd60e51b8152600401620004a7906200248d565b6000600582015460ff166002811115620005795762000579620022d6565b14620005995760405162461bcd60e51b8152600401620004a790620024ba565b60028101546001600160a01b031633146200060a5760405162461bcd60e51b815260206004820152602a60248201527f4f6e6c79206f726967696e616c20746f6b656e206f776e65722063616e2063616044820152693731b2b61037b93232b960b11b6064820152608401620004a7565b60058101805460ff191660021790556003810180546001600160a01b039081166000908152600660209081526040808320600487018054855292528083209290925592549254845491517f91ec35c6234a085e80ed7160394578b50b76d0ca0132ff961b5945f8465fb0d19462000686941692903390620024ef565b60405180910390a15050565b60006001620006a060025490565b620006ac919062002530565b905090565b60006001620006a060045490565b6001600160a01b0382166000908152600860205260409020548290620006f95760405162461bcd60e51b8152600401620004a79062002546565b60003411620007555760405162461bcd60e51b815260206004820152602160248201527f4275792062696420666f7220746f6b656e206d7573742062652061626f7665206044820152600360fc1b6064820152608401620004a7565b6001600160a01b0383166000908152600760209081526040808320858452825280832033845290915290205415620007ce5760405162461bcd60e51b815260206004820152601b60248201527a43616e277420706c61636520627579206f7264657220747769636560281b6044820152606401620004a7565b826000600581620007de60045490565b81526020808201929092526040908101600020815160e0810183528154815260018201546001600160a01b039081169482019490945260028083015485169382019390935260038201549093166060840152600481015460808401526005810154909160a084019160ff16908111156200085c576200085c620022d6565b6002811115620008705762000870620022d6565b81526020016005820160019054906101000a900460ff1660018111156200089b576200089b620022d6565b6001811115620008af57620008af620022d6565b9052503481529050600060a0820181905250336001600160a01b0390811660208301526040516331a9108f60e11b81526004810186905290831690636352211e90602401602060405180830381865afa15801562000911573d6000803e3d6000fd5b505050506040513d601f19601f820116820180604052508101906200093791906200258c565b6001600160a01b0390811660408301528516606082015260808101849052600160c08201526004548190600590600090815260208082019290925260409081016000208351815591830151600180840180546001600160a01b03199081166001600160a01b0394851617909155928501516002808601805486169285169290921790915560608601516003860180549095169316929092179092556080840151600484015560a08401516005840180549193909260ff1990921691849081111562000a065762000a06620022d6565b021790555060c082015160058201805461ff00191661010083600181111562000a335762000a33620022d6565b021790555050600480546001600160a01b03881660009081526007602090815260408083208a845282528083203384529091529020819055600101905550346001600082825462000a859190620025ac565b909155507f3631d1dabb4ee4da0a415d60172a4bec322cf5de5911bc876f576c1671260d7290508585343360405162000ac29493929190620024ef565b60405180910390a15050505050565b600080546103e89062000af090600160a01b900461ffff1684620025c2565b62000afc9190620025dc565b92915050565b60008181526005602052604090208054339062000b335760405162461bcd60e51b8152600401620004a7906200248d565b6000600583015460ff16600281111562000b515762000b51620022d6565b1462000b715760405162461bcd60e51b8152600401620004a790620024ba565b60028201546001600160a01b0382811691161462000be15760405162461bcd60e51b815260206004820152602660248201527f4f6e6c7920746f6b656e206f776e65722063616e2065786563757465206275796044820152651037b93232b960d11b6064820152608401620004a7565b60038201546004808401546040516331a9108f60e11b8152918201526001600160a01b03918216918316908290636352211e90602401602060405180830381865afa15801562000c35573d6000803e3d6000fd5b505050506040513d601f19601f8201168201806040525081019062000c5b91906200258c565b6001600160a01b03161462000cb05760405162461bcd60e51b815260206004820152601a60248201527929b2b63632b91036bab9ba103132903a37b5b2b71037bbb732b960311b6044820152606401620004a7565b62000cc1818385600401546200200e565b600062000cd2846000015462000ad1565b9050600081856000015462000ce8919062002530565b90506000846001600160a01b03168260405160006040518083038185875af1925050503d806000811462000d39576040519150601f19603f3d011682016040523d82523d6000602084013e62000d3e565b606091505b505090508062000d625760405162461bcd60e51b8152600401620004a790620025ff565b85546001805460009062000d7890849062002530565b909155505060058601805460ff1916600190811790915560038701546001600160a01b0390811660009081526007602090815260408083206004808d0180548652918452828520968d018054871686529690935281842093909355935491549351632142170760e11b8152888416946342842e0e9462000dfe948c949116920162002636565b600060405180830381600087803b15801562000e1957600080fd5b505af115801562000e2e573d6000803e3d6000fd5b5050506003870154600488015488546040517f62e62b33601b7bae977dc7798bb2beeec6c05b6199f4c57bb85e4acdb9e32980945062000e80936001600160a01b03169291908a9088908a906200265a565b60405180910390a150505050505050565b6000808211801562000eac575062000ea862000692565b8211155b62000f0d5760405162461bcd60e51b815260206004820152602a60248201527f496e646578206d7573742062653a2030203c205f6964203c3d20636f6c6c65636044820152691d1a5bdb9cd0dbdd5b9d60b21b6064820152608401620004a7565b506000908152600360205260409020546001600160a01b031690565b6001600160a01b038316600090815260086020526040902054839062000f635760405162461bcd60e51b8152600401620004a79062002546565b83336040516331a9108f60e11b8152600481018690526001600160a01b0391821691831690636352211e90602401602060405180830381865afa15801562000faf573d6000803e3d6000fd5b505050506040513d601f19601f8201168201806040525081019062000fd591906200258c565b6001600160a01b0316146200102d5760405162461bcd60e51b815260206004820152601d60248201527f53656c6c6572206d757374206265206f776e6572206f6620746f6b656e0000006044820152606401620004a7565b6200103a8133866200200e565b600083116200108c5760405162461bcd60e51b815260206004820152601f60248201527f507269636520666f7220746f6b656e206d7573742062652061626f76652030006044820152606401620004a7565b6001600160a01b038516600090815260066020908152604080832087845290915290205415620010fd5760405162461bcd60e51b815260206004820152601b60248201527a412073656c6c206f7264657220616c72656164792065786973747360281b6044820152606401620004a7565b6000600560006200110d60045490565b81526020808201929092526040908101600020815160e0810183528154815260018201546001600160a01b039081169482019490945260028083015485169382019390935260038201549093166060840152600481015460808401526005810154909160a084019160ff16908111156200118b576200118b620022d6565b60028111156200119f576200119f620022d6565b81526020016005820160019054906101000a900460ff166001811115620011ca57620011ca620022d6565b6001811115620011de57620011de620022d6565b9052508481523360208201529050600060a08201819052503360408201526001600160a01b038616606082015260808101859052600060c082018190525080600560006200122b60045490565b815260208082019290925260409081016000208351815591830151600180840180546001600160a01b03199081166001600160a01b0394851617909155928501516002808601805486169285169290921790915560608601516003860180549095169316929092179092556080840151600484015560a08401516005840180549193909260ff19909216918490811115620012ca57620012ca620022d6565b021790555060c082015160058201805461ff001916610100836001811115620012f757620012f7620022d6565b021790555050600480546001600160a01b03891660009081526006602090815260408083208b845290915290208190556001019055507fe701a81ed76f56736d0b44d124d71937e6c6882c9dc2b464d8003dda3ef9d7f786868633604051620013649493929190620024ef565b60405180910390a1505050505050565b6200137e62001fab565b6200138a600062002161565b565b600082815260056020908152604080832060038101546001600160a01b03168085526006845282852060048301548652909352922054620013e15760405162461bcd60e51b8152600401620004a7906200248d565b6000600583015460ff166002811115620013ff57620013ff620022d6565b146200141f5760405162461bcd60e51b8152600401620004a790620024ba565b60028201546004830154620014429183916001600160a01b03909116906200200e565b81543410156200148e5760405162461bcd60e51b8152602060048201526016602482015275139bdd08195b9bdd59da1d08195d1a195c881cd95b9d60521b6044820152606401620004a7565b60006200149f836000015462000ad1565b90506000818460000154620014b5919062002530565b8454909150600090620014c9903462002530565b60028601546040519192506000916001600160a01b039091169084908381818185875af1925050503d80600081146200151f576040519150601f19603f3d011682016040523d82523d6000602084013e62001524565b606091505b5050905080620015485760405162461bcd60e51b8152600401620004a790620025ff565b8115620015eb5760405133908390600081818185875af1925050503d806000811462001591576040519150601f19603f3d011682016040523d82523d6000602084013e62001596565b606091505b50508091505080620015eb5760405162461bcd60e51b815260206004820152601f60248201527f4661696c656420746f2072657475726e20657468657220746f206275796572006044820152606401620004a7565b60058601805460ff1916600117905560038601546001600160a01b0390811660009081526006602090815260408083206004808c0180548652919093528184209390935560028a015492549051632142170760e11b8152898516946342842e0e946200165f949116928d9290910162002636565b600060405180830381600087803b1580156200167a57600080fd5b505af11580156200168f573d6000803e3d6000fd5b505050506003860154600487015487547f2e755e8d6b5bfd06a97d5432997a0bd169ecb448c63e86a468e7ed5c9cb386eb926001600160a01b03169190338789604051620016e3969594939291906200265a565b60405180910390a15050505050505050565b6000546001600160a01b031690565b6040516301ffc9a760e01b81526001600160a01b038216906301ffc9a7906200173990635b5e139f60e01b9060040162002694565b602060405180830381865afa15801562001757573d6000803e3d6000fd5b505050506040513d601f19601f820116820180604052508101906200177d9190620026a9565b8015620017fe57506040516301ffc9a760e01b81526001600160a01b038216906301ffc9a790620017ba9063780e9d6360e01b9060040162002694565b602060405180830381865afa158015620017d8573d6000803e3d6000fd5b505050506040513d601f19601f82011682018060405250810190620017fe9190620026a9565b620018715760405162461bcd60e51b815260206004820152603c60248201527f506172616d65746572206d75737420696d706c656d656e74204945524337323160448201527b4d6574616461746120262049455243373231456e756d657261626c6560201b6064820152608401620004a7565b8080600360006200188160025490565b8152602081019190915260400160002080546001600160a01b0319166001600160a01b03929092169190911790556002546001600160a01b038316600090815260086020526040902055620018da600280546001019055565b7f984e55572a53408de7d3d94377bc8f6cf5aefba9fc83a2c4426b9d2d814017df816001600160a01b03166306fdde036040518163ffffffff1660e01b8152600401600060405180830381865afa1580156200193a573d6000803e3d6000fd5b505050506040513d6000823e601f3d908101601f1916820160405262001964919081019062002709565b826001600160a01b03166395d89b416040518163ffffffff1660e01b8152600401600060405180830381865afa158015620019a3573d6000803e3d6000fd5b505050506040513d6000823e601f3d908101601f19168201604052620019cd919081019062002709565b336040516200068693929190620027ef565b600060015447620006ac919062002530565b600081815260056020908152604080832060038101546001600160a01b0316845260078352818420600482015485528352818420338086529352922054831462001a975760405162461bcd60e51b815260206004820152603060248201527f4f7264657220646f65736e2774206578697374206f722073656e64657220697360448201526f103737ba103a34329031b932b0ba37b960811b6064820152608401620004a7565b60038201546001600160a01b039081166000908152600760209081526040808320600487015484528252808320938516835292905290812081905560058301805460ff191660021790558254600180549192909162001af890849062002530565b909155505081546040516000916001600160a01b038416918381818185875af1925050503d806000811462001b4a576040519150601f19603f3d011682016040523d82523d6000602084013e62001b4f565b606091505b505090508062001bb65760405162461bcd60e51b815260206004820152602b60248201527f4661696c656420746f2072657475726e20657468657220746f20627579206f7260448201526a3232b91031b932b0ba37b960a91b6064820152608401620004a7565b6003830154600484015484546040517f23c792fec287614f3540adbcc3be4947c3b7c98a8bf145aadf01a6245cbe9bdc9362001c02936001600160a01b039091169290918790620024ef565b60405180910390a150505050565b62001c506040805160e08101825260008082526020820181905291810182905260608101829052608081018290529060a082019081526020016000905290565b60008211801562001c6a575062001c66620006b1565b8211155b62001cc65760405162461bcd60e51b815260206004820152602560248201527f496e646578206d7573742062653a2030203c205f6964203c3d206f726465727360448201526410dbdd5b9d60da1b6064820152608401620004a7565b600082815260056020818152604092839020835160e0810185528154815260018201546001600160a01b0390811693820193909352600280830154841695820195909552600382015490921660608301526004810154608083015291820154909260a084019160ff169081111562001d425762001d42620022d6565b600281111562001d565762001d56620022d6565b81526020016005820160019054906101000a900460ff16600181111562001d815762001d81620022d6565b600181111562001d955762001d95620022d6565b90525092915050565b62001da862001fab565b6001600160a01b03811662001e0f5760405162461bcd60e51b815260206004820152602660248201527f4f776e61626c653a206e6577206f776e657220697320746865207a65726f206160448201526564647265737360d01b6064820152608401620004a7565b62001e1a8162002161565b50565b62001e2762001fab565b62001e31620019df565b81111562001e825760405162461bcd60e51b815260206004820152601d60248201527f416d6f756e74206d757374206265206c746520746f2062616c616e63650000006044820152606401620004a7565b6000826001600160a01b03168260405160006040518083038185875af1925050503d806000811462001ed1576040519150601f19603f3d011682016040523d82523d6000602084013e62001ed6565b606091505b505090508062001efa5760405162461bcd60e51b8152600401620004a790620025ff565b604080516001600160a01b0385168152602081018490527fc0819c13be868895eb93e40eaceb96de976442fa1d404e5c55f14bb65a8c489a910160405180910390a1505050565b6000868684848c8c8a8a60405162001f5990620021b1565b62001f6c9897969594939291906200285a565b604051809103906000f08015801562001f89573d6000803e3d6000fd5b50905062001f978162001704565b505050505050505050565b80546001019055565b3362001fb6620016f5565b6001600160a01b0316146200138a5760405162461bcd60e51b815260206004820181905260248201527f4f776e61626c653a2063616c6c6572206973206e6f7420746865206f776e65726044820152606401620004a7565b60405163020604bf60e21b81526004810182905230906001600160a01b0385169063081812fc90602401602060405180830381865afa15801562002056573d6000803e3d6000fd5b505050506040513d601f19601f820116820180604052508101906200207c91906200258c565b6001600160a01b0316148062002100575060405163e985e9c560e01b81526001600160a01b03838116600483015230602483015284169063e985e9c590604401602060405180830381865afa158015620020da573d6000803e3d6000fd5b505050506040513d601f19601f82011682018060405250810190620021009190620026a9565b6200215c5760405162461bcd60e51b815260206004820152602560248201527f4d61726b6574706c616365206d75737420626520617070726f766572206f66206044820152643a37b5b2b760d91b6064820152608401620004a7565b505050565b600080546001600160a01b038381166001600160a01b0319831681178455604051919092169283917f8be0079c531659141344cd1fd0a4f28419497f9722a3daafe3b4186f6b6457e09190a35050565b611d1480620028c383390190565b600060208284031215620021d257600080fd5b813561ffff81168114620021e557600080fd5b9392505050565b600060208284031215620021ff57600080fd5b5035919050565b6001600160a01b038116811462001e1a57600080fd5b600080604083850312156200223057600080fd5b82356200223d8162002206565b946020939093013593505050565b6000806000606084860312156200226157600080fd5b83356200226e8162002206565b95602085013595506040909401359392505050565b600080604083850312156200229757600080fd5b823591506020830135620022ab8162002206565b809150509250929050565b600060208284031215620022c957600080fd5b8135620021e58162002206565b634e487b7160e01b600052602160045260246000fd5b600060e08201905082518252602083015160018060a01b03808216602085015280604086015116604085015280606086015116606085015250506080830151608083015260a083015160038110620023485762002348620022d6565b60a083015260c083015160028110620023655762002365620022d6565b8060c08401525092915050565b60008083601f8401126200238557600080fd5b5081356001600160401b038111156200239d57600080fd5b602083019150836020828501011115620023b657600080fd5b9250929050565b6000806000806000806000806080898b031215620023da57600080fd5b88356001600160401b0380821115620023f257600080fd5b620024008c838d0162002372565b909a50985060208b01359150808211156200241a57600080fd5b620024288c838d0162002372565b909850965060408b01359150808211156200244257600080fd5b620024508c838d0162002372565b909650945060608b01359150808211156200246a57600080fd5b50620024798b828c0162002372565b999c989b5096995094979396929594505050565b60208082526013908201527213dc99195c88191bd95cdb89dd08195e1a5cdd606a1b604082015260600190565b6020808252601b908201527a27b93232b91036bab9ba103430bb329039ba30ba3ab99037b832b760291b604082015260600190565b6001600160a01b03948516815260208101939093526040830191909152909116606082015260800190565b634e487b7160e01b600052601160045260246000fd5b8181038181111562000afc5762000afc6200251a565b60208082526026908201527f436f6c6c656374696f6e206d7573742062652070617274206f66206d61726b6560408201526574706c61636560d01b606082015260800190565b6000602082840312156200259f57600080fd5b8151620021e58162002206565b8082018082111562000afc5762000afc6200251a565b808202811582820484141762000afc5762000afc6200251a565b600082620025fa57634e487b7160e01b600052601260045260246000fd5b500490565b6020808252601e908201527f4661696c656420746f2073656e6420657468657220746f2073656c6c65720000604082015260600190565b6001600160a01b039384168152919092166020820152604081019190915260600190565b6001600160a01b0396871681526020810195909552604085019390935293166060830152608082019290925260a081019190915260c00190565b6001600160e01b031991909116815260200190565b600060208284031215620026bc57600080fd5b81518015158114620021e557600080fd5b634e487b7160e01b600052604160045260246000fd5b60005b8381101562002700578181015183820152602001620026e6565b50506000910152565b6000602082840312156200271c57600080fd5b81516001600160401b03808211156200273457600080fd5b818401915084601f8301126200274957600080fd5b8151818111156200275e576200275e620026cd565b604051601f8201601f19908116603f01168101908382118183101715620027895762002789620026cd565b81604052828152876020848701011115620027a357600080fd5b620027b6836020830160208801620026e3565b979650505050505050565b60008151808452620027db816020860160208601620026e3565b601f01601f19169290920160200192915050565b606081526000620028046060830186620027c1565b8281036020840152620028188186620027c1565b91505060018060a01b0383166040830152949350505050565b81835281816020850137506000828201602090810191909152601f909101601f19169091010190565b60808152600062002870608083018a8c62002831565b82810360208401526200288581898b62002831565b905082810360408401526200289c81878962002831565b90508281036060840152620028b381858762002831565b9b9a505050505050505050505056fe60806040523480156200001157600080fd5b5060405162001d1438038062001d14833981016040819052620000349162000145565b818460006200004483826200028d565b5060016200005382826200028d565b50600b915062000066905084826200028d565b50600a6200007582826200028d565b505050505062000359565b634e487b7160e01b600052604160045260246000fd5b600082601f830112620000a857600080fd5b81516001600160401b0380821115620000c557620000c562000080565b604051601f8301601f19908116603f01168101908282118183101715620000f057620000f062000080565b816040528381526020925086838588010111156200010d57600080fd5b600091505b8382101562000131578582018301518183018401529082019062000112565b600093810190920192909252949350505050565b600080600080608085870312156200015c57600080fd5b84516001600160401b03808211156200017457600080fd5b620001828883890162000096565b955060208701519150808211156200019957600080fd5b620001a78883890162000096565b94506040870151915080821115620001be57600080fd5b620001cc8883890162000096565b93506060870151915080821115620001e357600080fd5b50620001f28782880162000096565b91505092959194509250565b600181811c908216806200021357607f821691505b6020821081036200023457634e487b7160e01b600052602260045260246000fd5b50919050565b601f8211156200028857600081815260208120601f850160051c81016020861015620002635750805b601f850160051c820191505b8181101562000284578281556001016200026f565b5050505b505050565b81516001600160401b03811115620002a957620002a962000080565b620002c181620002ba8454620001fe565b846200023a565b602080601f831160018114620002f95760008415620002e05750858301515b600019600386901b1c1916600185901b17855562000284565b600085815260208120601f198616915b828110156200032a5788860151825594840194600190910190840162000309565b5085821015620003495787850151600019600388901b60f8161c191681555b5050505050600190811b01905550565b6119ab80620003696000396000f3fe608060405234801561001057600080fd5b50600436106100f15760003560e01c806301ffc9a7146100f657806306fdde031461011e578063081812fc14610133578063095ea7b31461015e57806318160ddd1461017357806323b872dd146101855780632f745c591461019857806342842e0e146101ab5780634f6ccce7146101be5780636352211e146101d157806370a08231146101e45780637284e416146101f757806395d89b41146101ff5780639abc832014610207578063a22cb4651461020f578063b88d4fde14610222578063c87b56dd14610235578063d0def52114610248578063e985e9c51461025b575b600080fd5b610109610104366004611254565b61026e565b60405190151581526020015b60405180910390f35b610126610299565b60405161011591906112c8565b6101466101413660046112db565b61032b565b6040516001600160a01b039091168152602001610115565b61017161016c366004611310565b610352565b005b6008545b604051908152602001610115565b61017161019336600461133a565b61046c565b6101776101a6366004611310565b61049d565b6101716101b936600461133a565b610533565b6101776101cc3660046112db565b61054e565b6101466101df3660046112db565b6105e1565b6101776101f2366004611376565b610615565b61012661069b565b610126610729565b610126610738565b61017161021d366004611391565b610745565b6101716102303660046113e3565b610754565b6101266102433660046112db565b61078c565b6101716102563660046114be565b6107df565b610109610269366004611540565b610879565b60006001600160e01b0319821663780e9d6360e01b14806102935750610293826108a7565b92915050565b6060600080546102a890611573565b80601f01602080910402602001604051908101604052809291908181526020018280546102d490611573565b80156103215780601f106102f657610100808354040283529160200191610321565b820191906000526020600020905b81548152906001019060200180831161030457829003601f168201915b5050505050905090565b6000610336826108f7565b506000908152600460205260409020546001600160a01b031690565b600061035d826105e1565b9050806001600160a01b0316836001600160a01b0316036103cf5760405162461bcd60e51b815260206004820152602160248201527f4552433732313a20617070726f76616c20746f2063757272656e74206f776e656044820152603960f91b60648201526084015b60405180910390fd5b336001600160a01b03821614806103eb57506103eb8133610879565b61045d5760405162461bcd60e51b815260206004820152603d60248201527f4552433732313a20617070726f76652063616c6c6572206973206e6f7420746f60448201527f6b656e206f776e6572206f7220617070726f76656420666f7220616c6c00000060648201526084016103c6565b610467838361091f565b505050565b610476338261098d565b6104925760405162461bcd60e51b81526004016103c6906115ad565b6104678383836109ec565b60006104a883610615565b821061050a5760405162461bcd60e51b815260206004820152602b60248201527f455243373231456e756d657261626c653a206f776e657220696e646578206f7560448201526a74206f6620626f756e647360a81b60648201526084016103c6565b506001600160a01b03919091166000908152600660209081526040808320938352929052205490565b61046783838360405180602001604052806000815250610754565b600061055960085490565b82106105bc5760405162461bcd60e51b815260206004820152602c60248201527f455243373231456e756d657261626c653a20676c6f62616c20696e646578206f60448201526b7574206f6620626f756e647360a01b60648201526084016103c6565b600882815481106105cf576105cf6115fa565b90600052602060002001549050919050565b6000806105ed83610b4b565b90506001600160a01b0381166102935760405162461bcd60e51b81526004016103c690611610565b60006001600160a01b03821661067f5760405162461bcd60e51b815260206004820152602960248201527f4552433732313a2061646472657373207a65726f206973206e6f7420612076616044820152683634b21037bbb732b960b91b60648201526084016103c6565b506001600160a01b031660009081526003602052604090205490565b600a80546106a890611573565b80601f01602080910402602001604051908101604052809291908181526020018280546106d490611573565b80156107215780601f106106f657610100808354040283529160200191610721565b820191906000526020600020905b81548152906001019060200180831161070457829003601f168201915b505050505081565b6060600180546102a890611573565b600b80546106a890611573565b610750338383610b66565b5050565b61075e338361098d565b61077a5760405162461bcd60e51b81526004016103c6906115ad565b61078684848484610c30565b50505050565b6060610797826108f7565b60006107a1610c63565b905080600d60008581526020019081526020016000206040516020016107c8929190611642565b604051602081830303815290604052915050919050565b6107f1836107ec600c5490565b610c72565b8181600d6000610800600c5490565b8152602001908152602001600020918261081b92919061171d565b507f62f7bc8fdc729acda1f212255bc61eaa6776539721704ce3ee15d84d82d2013d610846600c5490565b604080519182526001600160a01b03861660208301523382820152519081900360600190a1610467600c80546001019055565b6001600160a01b03918216600090815260056020908152604080832093909416825291909152205460ff1690565b60006001600160e01b031982166380ac58cd60e01b14806108d857506001600160e01b03198216635b5e139f60e01b145b8061029357506301ffc9a760e01b6001600160e01b0319831614610293565b61090081610c8c565b61091c5760405162461bcd60e51b81526004016103c690611610565b50565b600081815260046020526040902080546001600160a01b0319166001600160a01b0384169081179091558190610954826105e1565b6001600160a01b03167f8c5be1e5ebec7d5bd14f71427d1e84f3dd0314c0f7b2291e5b200ac8c7c3b92560405160405180910390a45050565b600080610999836105e1565b9050806001600160a01b0316846001600160a01b031614806109c057506109c08185610879565b806109e45750836001600160a01b03166109d98461032b565b6001600160a01b0316145b949350505050565b826001600160a01b03166109ff826105e1565b6001600160a01b031614610a255760405162461bcd60e51b81526004016103c6906117dc565b6001600160a01b038216610a875760405162461bcd60e51b8152602060048201526024808201527f4552433732313a207472616e7366657220746f20746865207a65726f206164646044820152637265737360e01b60648201526084016103c6565b610a948383836001610ca9565b826001600160a01b0316610aa7826105e1565b6001600160a01b031614610acd5760405162461bcd60e51b81526004016103c6906117dc565b600081815260046020908152604080832080546001600160a01b03199081169091556001600160a01b03878116808652600385528386208054600019019055908716808652838620805460010190558686526002909452828520805490921684179091559051849360008051602061195683398151915291a4505050565b6000908152600260205260409020546001600160a01b031690565b816001600160a01b0316836001600160a01b031603610bc35760405162461bcd60e51b815260206004820152601960248201527822a9219b99189d1030b8383937bb32903a379031b0b63632b960391b60448201526064016103c6565b6001600160a01b03838116600081815260056020908152604080832094871680845294825291829020805460ff191686151590811790915591519182527f17307eab39ab6107e8899845ad3d59bd9653f200f220920489ca2b5937696c31910160405180910390a3505050565b610c3b8484846109ec565b610c4784848484610de9565b6107865760405162461bcd60e51b81526004016103c690611821565b6060600b80546102a890611573565b610750828260405180602001604052806000815250610eea565b600080610c9883610b4b565b6001600160a01b0316141592915050565b610cb584848484610f1d565b6001811115610d245760405162461bcd60e51b815260206004820152603560248201527f455243373231456e756d657261626c653a20636f6e7365637574697665207472604482015274185b9cd9995c9cc81b9bdd081cdd5c1c1bdc9d1959605a1b60648201526084016103c6565b816001600160a01b038516610d8057610d7b81600880546000838152600960205260408120829055600182018355919091527ff3f7a9fe364faab93b216da50a3214154f22a0a2b415b23a84c8169e8b636ee30155565b610da3565b836001600160a01b0316856001600160a01b031614610da357610da38582610fa5565b6001600160a01b038416610dbf57610dba81611042565b610de2565b846001600160a01b0316846001600160a01b031614610de257610de284826110f1565b5050505050565b60006001600160a01b0384163b15610edf57604051630a85bd0160e11b81526001600160a01b0385169063150b7a0290610e2d903390899088908890600401611873565b6020604051808303816000875af1925050508015610e68575060408051601f3d908101601f19168201909252610e65918101906118b0565b60015b610ec5573d808015610e96576040519150601f19603f3d011682016040523d82523d6000602084013e610e9b565b606091505b508051600003610ebd5760405162461bcd60e51b81526004016103c690611821565b805181602001fd5b6001600160e01b031916630a85bd0160e11b1490506109e4565b506001949350505050565b610ef48383611135565b610f016000848484610de9565b6104675760405162461bcd60e51b81526004016103c690611821565b6001811115610786576001600160a01b03841615610f63576001600160a01b03841660009081526003602052604081208054839290610f5d9084906118e3565b90915550505b6001600160a01b03831615610786576001600160a01b03831660009081526003602052604081208054839290610f9a9084906118f6565b909155505050505050565b60006001610fb284610615565b610fbc91906118e3565b60008381526007602052604090205490915080821461100f576001600160a01b03841660009081526006602090815260408083208584528252808320548484528184208190558352600790915290208190555b5060009182526007602090815260408084208490556001600160a01b039094168352600681528383209183525290812055565b600854600090611054906001906118e3565b6000838152600960205260408120546008805493945090928490811061107c5761107c6115fa565b90600052602060002001549050806008838154811061109d5761109d6115fa565b60009182526020808320909101929092558281526009909152604080822084905585825281205560088054806110d5576110d5611909565b6001900381819060005260206000200160009055905550505050565b60006110fc83610615565b6001600160a01b039093166000908152600660209081526040808320868452825280832085905593825260079052919091209190915550565b6001600160a01b03821661118b5760405162461bcd60e51b815260206004820181905260248201527f4552433732313a206d696e7420746f20746865207a65726f206164647265737360448201526064016103c6565b61119481610c8c565b156111b15760405162461bcd60e51b81526004016103c69061191f565b6111bf600083836001610ca9565b6111c881610c8c565b156111e55760405162461bcd60e51b81526004016103c69061191f565b6001600160a01b038216600081815260036020908152604080832080546001019055848352600290915280822080546001600160a01b031916841790555183929190600080516020611956833981519152908290a45050565b6001600160e01b03198116811461091c57600080fd5b60006020828403121561126657600080fd5b81356112718161123e565b9392505050565b60005b8381101561129357818101518382015260200161127b565b50506000910152565b600081518084526112b4816020860160208601611278565b601f01601f19169290920160200192915050565b602081526000611271602083018461129c565b6000602082840312156112ed57600080fd5b5035919050565b80356001600160a01b038116811461130b57600080fd5b919050565b6000806040838503121561132357600080fd5b61132c836112f4565b946020939093013593505050565b60008060006060848603121561134f57600080fd5b611358846112f4565b9250611366602085016112f4565b9150604084013590509250925092565b60006020828403121561138857600080fd5b611271826112f4565b600080604083850312156113a457600080fd5b6113ad836112f4565b9150602083013580151581146113c257600080fd5b809150509250929050565b634e487b7160e01b600052604160045260246000fd5b600080600080608085870312156113f957600080fd5b611402856112f4565b9350611410602086016112f4565b92506040850135915060608501356001600160401b038082111561143357600080fd5b818701915087601f83011261144757600080fd5b813581811115611459576114596113cd565b604051601f8201601f19908116603f01168101908382118183101715611481576114816113cd565b816040528281528a602084870101111561149a57600080fd5b82602086016020830137600060208483010152809550505050505092959194509250565b6000806000604084860312156114d357600080fd5b6114dc846112f4565b925060208401356001600160401b03808211156114f857600080fd5b818601915086601f83011261150c57600080fd5b81358181111561151b57600080fd5b87602082850101111561152d57600080fd5b6020830194508093505050509250925092565b6000806040838503121561155357600080fd5b61155c836112f4565b915061156a602084016112f4565b90509250929050565b600181811c9082168061158757607f821691505b6020821081036115a757634e487b7160e01b600052602260045260246000fd5b50919050565b6020808252602d908201527f4552433732313a2063616c6c6572206973206e6f7420746f6b656e206f776e6560408201526c1c881bdc88185c1c1c9bdd9959609a1b606082015260800190565b634e487b7160e01b600052603260045260246000fd5b602080825260189082015277115490cdcc8c4e881a5b9d985b1a59081d1bdad95b88125160421b604082015260600190565b6000835160206116558285838901611278565b81840191506000855461166781611573565b6001828116801561167f5760018114611694576116c0565b60ff19841687528215158302870194506116c0565b896000528560002060005b848110156116b85781548982015290830190870161169f565b505082870194505b50929998505050505050505050565b601f82111561046757600081815260208120601f850160051c810160208610156116f65750805b601f850160051c820191505b8181101561171557828155600101611702565b505050505050565b6001600160401b03831115611734576117346113cd565b611748836117428354611573565b836116cf565b6000601f84116001811461177c57600085156117645750838201355b600019600387901b1c1916600186901b178355610de2565b600083815260209020601f19861690835b828110156117ad578685013582556020948501946001909201910161178d565b50868210156117ca5760001960f88860031b161c19848701351681555b505060018560011b0183555050505050565b60208082526025908201527f4552433732313a207472616e736665722066726f6d20696e636f72726563742060408201526437bbb732b960d91b606082015260800190565b60208082526032908201527f4552433732313a207472616e7366657220746f206e6f6e20455243373231526560408201527131b2b4bb32b91034b6b83632b6b2b73a32b960711b606082015260800190565b6001600160a01b03858116825284166020820152604081018390526080606082018190526000906118a69083018461129c565b9695505050505050565b6000602082840312156118c257600080fd5b81516112718161123e565b634e487b7160e01b600052601160045260246000fd5b81810381811115610293576102936118cd565b80820180821115610293576102936118cd565b634e487b7160e01b600052603160045260246000fd5b6020808252601c908201527b115490cdcc8c4e881d1bdad95b88185b1c9958591e481b5a5b9d195960221b60408201526060019056feddf252ad1be2c89b69c2b068fc378daa952ba7f163c4a11628f55a4df523b3efa26469706673582212209d0400b498cca513759ec03aa94dd4531ae86fecc952a6e172aab15b9b874e7364736f6c63430008110033a26469706673582212208008b80a41029a1dd4c4848490c19b662e1f0b6e4912139c77763aadef44d5e464736f6c63430008110033",
  "linkReferences": {},
  "deployedLinkReferences": {}
}