{
  "_format": "hh-sol-artifact-1",
  "contractName": "TokenCollection",
  "sourceName": "contracts/TokenCollection.sol",
  "abi": [
    {
      "inputs": [
        {
          "internalType": "string",
          "name": "_symbol",
          "type": "string"
        },
        {
          "internalType": "string",
          "name": "_baseUri",
          "type": "string"
        },
        {
          "internalType": "string",
          "name": "_name",
          "type": "string"
        },
        {
          "internalType": "string",
          "name": "_description",
          "type": "string"
        }
      ],
      "stateMutability": "nonpayable",
      "type": "constructor"
    },
    {
      "anonymous": false,
      "inputs": [
        {
          "indexed": true,
          "internalType": "address",
          "name": "owner",
          "type": "address"
        },
        {
          "indexed": true,
          "internalType": "address",
          "name": "approved",
          "type": "address"
        },
        {
          "indexed": true,
          "internalType": "uint256",
          "name": "tokenId",
          "type": "uint256"
        }
      ],
      "name": "Approval",
      "type": "event"
    },
    {
      "anonymous": false,
      "inputs": [
        {
          "indexed": true,
          "internalType": "address",
          "name": "owner",
          "type": "address"
        },
        {
          "indexed": true,
          "internalType": "address",
          "name": "operator",
          "type": "address"
        },
        {
          "indexed": false,
          "internalType": "bool",
          "name": "approved",
          "type": "bool"
        }
      ],
      "name": "ApprovalForAll",
      "type": "event"
    },
    {
      "anonymous": false,
      "inputs": [
        {
          "indexed": false,
          "internalType": "uint256",
          "name": "tokenId",
          "type": "uint256"
        },
        {
          "indexed": false,
          "internalType": "address",
          "name": "to",
          "type": "address"
        },
        {
          "indexed": false,
          "internalType": "address",
          "name": "by",
          "type": "address"
        }
      ],
      "name": "TokenMinted",
      "type": "event"
    },
    {
      "anonymous": false,
      "inputs": [
        {
          "indexed": true,
          "internalType": "address",
          "name": "from",
          "type": "address"
        },
        {
          "indexed": true,
          "internalType": "address",
          "name": "to",
          "type": "address"
        },
        {
          "indexed": true,
          "internalType": "uint256",
          "name": "tokenId",
          "type": "uint256"
        }
      ],
      "name": "Transfer",
      "type": "event"
    },
    {
      "inputs": [
        {
          "internalType": "address",
          "name": "to",
          "type": "address"
        },
        {
          "internalType": "uint256",
          "name": "tokenId",
          "type": "uint256"
        }
      ],
      "name": "approve",
      "outputs": [],
      "stateMutability": "nonpayable",
      "type": "function"
    },
    {
      "inputs": [
        {
          "internalType": "address",
          "name": "owner",
          "type": "address"
        }
      ],
      "name": "balanceOf",
      "outputs": [
        {
          "internalType": "uint256",
          "name": "",
          "type": "uint256"
        }
      ],
      "stateMutability": "view",
      "type": "function"
    },
    {
      "inputs": [],
      "name": "baseUri",
      "outputs": [
        {
          "internalType": "string",
          "name": "",
          "type": "string"
        }
      ],
      "stateMutability": "view",
      "type": "function"
    },
    {
      "inputs": [],
      "name": "description",
      "outputs": [
        {
          "internalType": "string",
          "name": "",
          "type": "string"
        }
      ],
      "stateMutability": "view",
      "type": "function"
    },
    {
      "inputs": [
        {
          "internalType": "uint256",
          "name": "tokenId",
          "type": "uint256"
        }
      ],
      "name": "getApproved",
      "outputs": [
        {
          "internalType": "address",
          "name": "",
          "type": "address"
        }
      ],
      "stateMutability": "view",
      "type": "function"
    },
    {
      "inputs": [
        {
          "internalType": "address",
          "name": "owner",
          "type": "address"
        },
        {
          "internalType": "address",
          "name": "operator",
          "type": "address"
        }
      ],
      "name": "isApprovedForAll",
      "outputs": [
        {
          "internalType": "bool",
          "name": "",
          "type": "bool"
        }
      ],
      "stateMutability": "view",
      "type": "function"
    },
    {
      "inputs": [
        {
          "internalType": "address",
          "name": "_to",
          "type": "address"
        },
        {
          "internalType": "string",
          "name": "_metadataHash",
          "type": "string"
        }
      ],
      "name": "mint",
      "outputs": [],
      "stateMutability": "nonpayable",
      "type": "function"
    },
    {
      "inputs": [],
      "name": "name",
      "outputs": [
        {
          "internalType": "string",
          "name": "",
          "type": "string"
        }
      ],
      "stateMutability": "view",
      "type": "function"
    },
    {
      "inputs": [
        {
          "internalType": "uint256",
          "name": "tokenId",
          "type": "uint256"
        }
      ],
      "name": "ownerOf",
      "outputs": [
        {
          "internalType": "address",
          "name": "",
          "type": "address"
        }
      ],
      "stateMutability": "view",
      "type": "function"
    },
    {
      "inputs": [
        {
          "internalType": "address",
          "name": "from",
          "type": "address"
        },
        {
          "internalType": "address",
          "name": "to",
          "type": "address"
        },
        {
          "internalType": "uint256",
          "name": "tokenId",
          "type": "uint256"
        }
      ],
      "name": "safeTransferFrom",
      "outputs": [],
      "stateMutability": "nonpayable",
      "type": "function"
    },
    {
      "inputs": [
        {
          "internalType": "address",
          "name": "from",
          "type": "address"
        },
        {
          "internalType": "address",
          "name": "to",
          "type": "address"
        },
        {
          "internalType": "uint256",
          "name": "tokenId",
          "type": "uint256"
        },
        {
          "internalType": "bytes",
          "name": "data",
          "type": "bytes"
        }
      ],
      "name": "safeTransferFrom",
      "outputs": [],
      "stateMutability": "nonpayable",
      "type": "function"
    },
    {
      "inputs": [
        {
          "internalType": "address",
          "name": "operator",
          "type": "address"
        },
        {
          "internalType": "bool",
          "name": "approved",
          "type": "bool"
        }
      ],
      "name": "setApprovalForAll",
      "outputs": [],
      "stateMutability": "nonpayable",
      "type": "function"
    },
    {
      "inputs": [
        {
          "internalType": "bytes4",
          "name": "interfaceId",
          "type": "bytes4"
        }
      ],
      "name": "supportsInterface",
      "outputs": [
        {
          "internalType": "bool",
          "name": "",
          "type": "bool"
        }
      ],
      "stateMutability": "view",
      "type": "function"
    },
    {
      "inputs": [],
      "name": "symbol",
      "outputs": [
        {
          "internalType": "string",
          "name": "",
          "type": "string"
        }
      ],
      "stateMutability": "view",
      "type": "function"
    },
    {
      "inputs": [
        {
          "internalType": "uint256",
          "name": "index",
          "type": "uint256"
        }
      ],
      "name": "tokenByIndex",
      "outputs": [
        {
          "internalType": "uint256",
          "name": "",
          "type": "uint256"
        }
      ],
      "stateMutability": "view",
      "type": "function"
    },
    {
      "inputs": [
        {
          "internalType": "address",
          "name": "owner",
          "type": "address"
        },
        {
          "internalType": "uint256",
          "name": "index",
          "type": "uint256"
        }
      ],
      "name": "tokenOfOwnerByIndex",
      "outputs": [
        {
          "internalType": "uint256",
          "name": "",
          "type": "uint256"
        }
      ],
      "stateMutability": "view",
      "type": "function"
    },
    {
      "inputs": [
        {
          "internalType": "uint256",
          "name": "tokenId",
          "type": "uint256"
        }
      ],
      "name": "tokenURI",
      "outputs": [
        {
          "internalType": "string",
          "name": "",
          "type": "string"
        }
      ],
      "stateMutability": "view",
      "type": "function"
    },
    {
      "inputs": [],
      "name": "totalSupply",
      "outputs": [
        {
          "internalType": "uint256",
          "name": "",
          "type": "uint256"
        }
      ],
      "stateMutability": "view",
      "type": "function"
    },
    {
      "inputs": [
        {
          "internalType": "address",
          "name": "from",
          "type": "address"
        },
        {
          "internalType": "address",
          "name": "to",
          "type": "address"
        },
        {
          "internalType": "uint256",
          "name": "tokenId",
          "type": "uint256"
        }
      ],
      "name": "transferFrom",
      "outputs": [],
      "stateMutability": "nonpayable",
      "type": "function"
    }
  ],
  "bytecode": "0x60806040523480156200001157600080fd5b5060405162001d1438038062001d14833981016040819052620000349162000145565b818460006200004483826200028d565b5060016200005382826200028d565b50600b915062000066905084826200028d565b50600a6200007582826200028d565b505050505062000359565b634e487b7160e01b600052604160045260246000fd5b600082601f830112620000a857600080fd5b81516001600160401b0380821115620000c557620000c562000080565b604051601f8301601f19908116603f01168101908282118183101715620000f057620000f062000080565b816040528381526020925086838588010111156200010d57600080fd5b600091505b8382101562000131578582018301518183018401529082019062000112565b600093810190920192909252949350505050565b600080600080608085870312156200015c57600080fd5b84516001600160401b03808211156200017457600080fd5b620001828883890162000096565b955060208701519150808211156200019957600080fd5b620001a78883890162000096565b94506040870151915080821115620001be57600080fd5b620001cc8883890162000096565b93506060870151915080821115620001e357600080fd5b50620001f28782880162000096565b91505092959194509250565b600181811c908216806200021357607f821691505b6020821081036200023457634e487b7160e01b600052602260045260246000fd5b50919050565b601f8211156200028857600081815260208120601f850160051c81016020861015620002635750805b601f850160051c820191505b8181101562000284578281556001016200026f565b5050505b505050565b81516001600160401b03811115620002a957620002a962000080565b620002c181620002ba8454620001fe565b846200023a565b602080601f831160018114620002f95760008415620002e05750858301515b600019600386901b1c1916600185901b17855562000284565b600085815260208120601f198616915b828110156200032a5788860151825594840194600190910190840162000309565b5085821015620003495787850151600019600388901b60f8161c191681555b5050505050600190811b01905550565b6119ab80620003696000396000f3fe608060405234801561001057600080fd5b50600436106100f15760003560e01c806301ffc9a7146100f657806306fdde031461011e578063081812fc14610133578063095ea7b31461015e57806318160ddd1461017357806323b872dd146101855780632f745c591461019857806342842e0e146101ab5780634f6ccce7146101be5780636352211e146101d157806370a08231146101e45780637284e416146101f757806395d89b41146101ff5780639abc832014610207578063a22cb4651461020f578063b88d4fde14610222578063c87b56dd14610235578063d0def52114610248578063e985e9c51461025b575b600080fd5b610109610104366004611254565b61026e565b60405190151581526020015b60405180910390f35b610126610299565b60405161011591906112c8565b6101466101413660046112db565b61032b565b6040516001600160a01b039091168152602001610115565b61017161016c366004611310565b610352565b005b6008545b604051908152602001610115565b61017161019336600461133a565b61046c565b6101776101a6366004611310565b61049d565b6101716101b936600461133a565b610533565b6101776101cc3660046112db565b61054e565b6101466101df3660046112db565b6105e1565b6101776101f2366004611376565b610615565b61012661069b565b610126610729565b610126610738565b61017161021d366004611391565b610745565b6101716102303660046113e3565b610754565b6101266102433660046112db565b61078c565b6101716102563660046114be565b6107df565b610109610269366004611540565b610879565b60006001600160e01b0319821663780e9d6360e01b14806102935750610293826108a7565b92915050565b6060600080546102a890611573565b80601f01602080910402602001604051908101604052809291908181526020018280546102d490611573565b80156103215780601f106102f657610100808354040283529160200191610321565b820191906000526020600020905b81548152906001019060200180831161030457829003601f168201915b5050505050905090565b6000610336826108f7565b506000908152600460205260409020546001600160a01b031690565b600061035d826105e1565b9050806001600160a01b0316836001600160a01b0316036103cf5760405162461bcd60e51b815260206004820152602160248201527f4552433732313a20617070726f76616c20746f2063757272656e74206f776e656044820152603960f91b60648201526084015b60405180910390fd5b336001600160a01b03821614806103eb57506103eb8133610879565b61045d5760405162461bcd60e51b815260206004820152603d60248201527f4552433732313a20617070726f76652063616c6c6572206973206e6f7420746f60448201527f6b656e206f776e6572206f7220617070726f76656420666f7220616c6c00000060648201526084016103c6565b610467838361091f565b505050565b610476338261098d565b6104925760405162461bcd60e51b81526004016103c6906115ad565b6104678383836109ec565b60006104a883610615565b821061050a5760405162461bcd60e51b815260206004820152602b60248201527f455243373231456e756d657261626c653a206f776e657220696e646578206f7560448201526a74206f6620626f756e647360a81b60648201526084016103c6565b506001600160a01b03919091166000908152600660209081526040808320938352929052205490565b61046783838360405180602001604052806000815250610754565b600061055960085490565b82106105bc5760405162461bcd60e51b815260206004820152602c60248201527f455243373231456e756d657261626c653a20676c6f62616c20696e646578206f60448201526b7574206f6620626f756e647360a01b60648201526084016103c6565b600882815481106105cf576105cf6115fa565b90600052602060002001549050919050565b6000806105ed83610b4b565b90506001600160a01b0381166102935760405162461bcd60e51b81526004016103c690611610565b60006001600160a01b03821661067f5760405162461bcd60e51b815260206004820152602960248201527f4552433732313a2061646472657373207a65726f206973206e6f7420612076616044820152683634b21037bbb732b960b91b60648201526084016103c6565b506001600160a01b031660009081526003602052604090205490565b600a80546106a890611573565b80601f01602080910402602001604051908101604052809291908181526020018280546106d490611573565b80156107215780601f106106f657610100808354040283529160200191610721565b820191906000526020600020905b81548152906001019060200180831161070457829003601f168201915b505050505081565b6060600180546102a890611573565b600b80546106a890611573565b610750338383610b66565b5050565b61075e338361098d565b61077a5760405162461bcd60e51b81526004016103c6906115ad565b61078684848484610c30565b50505050565b6060610797826108f7565b60006107a1610c63565b905080600d60008581526020019081526020016000206040516020016107c8929190611642565b604051602081830303815290604052915050919050565b6107f1836107ec600c5490565b610c72565b8181600d6000610800600c5490565b8152602001908152602001600020918261081b92919061171d565b507f62f7bc8fdc729acda1f212255bc61eaa6776539721704ce3ee15d84d82d2013d610846600c5490565b604080519182526001600160a01b03861660208301523382820152519081900360600190a1610467600c80546001019055565b6001600160a01b03918216600090815260056020908152604080832093909416825291909152205460ff1690565b60006001600160e01b031982166380ac58cd60e01b14806108d857506001600160e01b03198216635b5e139f60e01b145b8061029357506301ffc9a760e01b6001600160e01b0319831614610293565b61090081610c8c565b61091c5760405162461bcd60e51b81526004016103c690611610565b50565b600081815260046020526040902080546001600160a01b0319166001600160a01b0384169081179091558190610954826105e1565b6001600160a01b03167f8c5be1e5ebec7d5bd14f71427d1e84f3dd0314c0f7b2291e5b200ac8c7c3b92560405160405180910390a45050565b600080610999836105e1565b9050806001600160a01b0316846001600160a01b031614806109c057506109c08185610879565b806109e45750836001600160a01b03166109d98461032b565b6001600160a01b0316145b949350505050565b826001600160a01b03166109ff826105e1565b6001600160a01b031614610a255760405162461bcd60e51b81526004016103c6906117dc565b6001600160a01b038216610a875760405162461bcd60e51b8152602060048201526024808201527f4552433732313a207472616e7366657220746f20746865207a65726f206164646044820152637265737360e01b60648201526084016103c6565b610a948383836001610ca9565b826001600160a01b0316610aa7826105e1565b6001600160a01b031614610acd5760405162461bcd60e51b81526004016103c6906117dc565b600081815260046020908152604080832080546001600160a01b03199081169091556001600160a01b03878116808652600385528386208054600019019055908716808652838620805460010190558686526002909452828520805490921684179091559051849360008051602061195683398151915291a4505050565b6000908152600260205260409020546001600160a01b031690565b816001600160a01b0316836001600160a01b031603610bc35760405162461bcd60e51b815260206004820152601960248201527822a9219b99189d1030b8383937bb32903a379031b0b63632b960391b60448201526064016103c6565b6001600160a01b03838116600081815260056020908152604080832094871680845294825291829020805460ff191686151590811790915591519182527f17307eab39ab6107e8899845ad3d59bd9653f200f220920489ca2b5937696c31910160405180910390a3505050565b610c3b8484846109ec565b610c4784848484610de9565b6107865760405162461bcd60e51b81526004016103c690611821565b6060600b80546102a890611573565b610750828260405180602001604052806000815250610eea565b600080610c9883610b4b565b6001600160a01b0316141592915050565b610cb584848484610f1d565b6001811115610d245760405162461bcd60e51b815260206004820152603560248201527f455243373231456e756d657261626c653a20636f6e7365637574697665207472604482015274185b9cd9995c9cc81b9bdd081cdd5c1c1bdc9d1959605a1b60648201526084016103c6565b816001600160a01b038516610d8057610d7b81600880546000838152600960205260408120829055600182018355919091527ff3f7a9fe364faab93b216da50a3214154f22a0a2b415b23a84c8169e8b636ee30155565b610da3565b836001600160a01b0316856001600160a01b031614610da357610da38582610fa5565b6001600160a01b038416610dbf57610dba81611042565b610de2565b846001600160a01b0316846001600160a01b031614610de257610de284826110f1565b5050505050565b60006001600160a01b0384163b15610edf57604051630a85bd0160e11b81526001600160a01b0385169063150b7a0290610e2d903390899088908890600401611873565b6020604051808303816000875af1925050508015610e68575060408051601f3d908101601f19168201909252610e65918101906118b0565b60015b610ec5573d808015610e96576040519150601f19603f3d011682016040523d82523d6000602084013e610e9b565b606091505b508051600003610ebd5760405162461bcd60e51b81526004016103c690611821565b805181602001fd5b6001600160e01b031916630a85bd0160e11b1490506109e4565b506001949350505050565b610ef48383611135565b610f016000848484610de9565b6104675760405162461bcd60e51b81526004016103c690611821565b6001811115610786576001600160a01b03841615610f63576001600160a01b03841660009081526003602052604081208054839290610f5d9084906118e3565b90915550505b6001600160a01b03831615610786576001600160a01b03831660009081526003602052604081208054839290610f9a9084906118f6565b909155505050505050565b60006001610fb284610615565b610fbc91906118e3565b60008381526007602052604090205490915080821461100f576001600160a01b03841660009081526006602090815260408083208584528252808320548484528184208190558352600790915290208190555b5060009182526007602090815260408084208490556001600160a01b039094168352600681528383209183525290812055565b600854600090611054906001906118e3565b6000838152600960205260408120546008805493945090928490811061107c5761107c6115fa565b90600052602060002001549050806008838154811061109d5761109d6115fa565b60009182526020808320909101929092558281526009909152604080822084905585825281205560088054806110d5576110d5611909565b6001900381819060005260206000200160009055905550505050565b60006110fc83610615565b6001600160a01b039093166000908152600660209081526040808320868452825280832085905593825260079052919091209190915550565b6001600160a01b03821661118b5760405162461bcd60e51b815260206004820181905260248201527f4552433732313a206d696e7420746f20746865207a65726f206164647265737360448201526064016103c6565b61119481610c8c565b156111b15760405162461bcd60e51b81526004016103c69061191f565b6111bf600083836001610ca9565b6111c881610c8c565b156111e55760405162461bcd60e51b81526004016103c69061191f565b6001600160a01b038216600081815260036020908152604080832080546001019055848352600290915280822080546001600160a01b031916841790555183929190600080516020611956833981519152908290a45050565b6001600160e01b03198116811461091c57600080fd5b60006020828403121561126657600080fd5b81356112718161123e565b9392505050565b60005b8381101561129357818101518382015260200161127b565b50506000910152565b600081518084526112b4816020860160208601611278565b601f01601f19169290920160200192915050565b602081526000611271602083018461129c565b6000602082840312156112ed57600080fd5b5035919050565b80356001600160a01b038116811461130b57600080fd5b919050565b6000806040838503121561132357600080fd5b61132c836112f4565b946020939093013593505050565b60008060006060848603121561134f57600080fd5b611358846112f4565b9250611366602085016112f4565b9150604084013590509250925092565b60006020828403121561138857600080fd5b611271826112f4565b600080604083850312156113a457600080fd5b6113ad836112f4565b9150602083013580151581146113c257600080fd5b809150509250929050565b634e487b7160e01b600052604160045260246000fd5b600080600080608085870312156113f957600080fd5b611402856112f4565b9350611410602086016112f4565b92506040850135915060608501356001600160401b038082111561143357600080fd5b818701915087601f83011261144757600080fd5b813581811115611459576114596113cd565b604051601f8201601f19908116603f01168101908382118183101715611481576114816113cd565b816040528281528a602084870101111561149a57600080fd5b82602086016020830137600060208483010152809550505050505092959194509250565b6000806000604084860312156114d357600080fd5b6114dc846112f4565b925060208401356001600160401b03808211156114f857600080fd5b818601915086601f83011261150c57600080fd5b81358181111561151b57600080fd5b87602082850101111561152d57600080fd5b6020830194508093505050509250925092565b6000806040838503121561155357600080fd5b61155c836112f4565b915061156a602084016112f4565b90509250929050565b600181811c9082168061158757607f821691505b6020821081036115a757634e487b7160e01b600052602260045260246000fd5b50919050565b6020808252602d908201527f4552433732313a2063616c6c6572206973206e6f7420746f6b656e206f776e6560408201526c1c881bdc88185c1c1c9bdd9959609a1b606082015260800190565b634e487b7160e01b600052603260045260246000fd5b602080825260189082015277115490cdcc8c4e881a5b9d985b1a59081d1bdad95b88125160421b604082015260600190565b6000835160206116558285838901611278565b81840191506000855461166781611573565b6001828116801561167f5760018114611694576116c0565b60ff19841687528215158302870194506116c0565b896000528560002060005b848110156116b85781548982015290830190870161169f565b505082870194505b50929998505050505050505050565b601f82111561046757600081815260208120601f850160051c810160208610156116f65750805b601f850160051c820191505b8181101561171557828155600101611702565b505050505050565b6001600160401b03831115611734576117346113cd565b611748836117428354611573565b836116cf565b6000601f84116001811461177c57600085156117645750838201355b600019600387901b1c1916600186901b178355610de2565b600083815260209020601f19861690835b828110156117ad578685013582556020948501946001909201910161178d565b50868210156117ca5760001960f88860031b161c19848701351681555b505060018560011b0183555050505050565b60208082526025908201527f4552433732313a207472616e736665722066726f6d20696e636f72726563742060408201526437bbb732b960d91b606082015260800190565b60208082526032908201527f4552433732313a207472616e7366657220746f206e6f6e20455243373231526560408201527131b2b4bb32b91034b6b83632b6b2b73a32b960711b606082015260800190565b6001600160a01b03858116825284166020820152604081018390526080606082018190526000906118a69083018461129c565b9695505050505050565b6000602082840312156118c257600080fd5b81516112718161123e565b634e487b7160e01b600052601160045260246000fd5b81810381811115610293576102936118cd565b80820180821115610293576102936118cd565b634e487b7160e01b600052603160045260246000fd5b6020808252601c908201527b115490cdcc8c4e881d1bdad95b88185b1c9958591e481b5a5b9d195960221b60408201526060019056feddf252ad1be2c89b69c2b068fc378daa952ba7f163c4a11628f55a4df523b3efa26469706673582212209d0400b498cca513759ec03aa94dd4531ae86fecc952a6e172aab15b9b874e7364736f6c63430008110033",
  "linkReferences": {},
  "deployedLinkReferences": {}
}